:0200000407FCF7
:100000000888FC07B500FC07BD00FC07D500FC070D
:1000100000000000000000000000000000000000E0
:10002000000000000000000000000000ED00FC07E0
:100030000000000000000000EF00FC07F100FC07DA
:10004000F300FC07F300FC07D50CFC07050FFC07C9
:10005000F300FC07F300FC07F300FC07F300FC07C8
:10006000F300FC07F300FC072D08FC075908FC0708
:100070008908FC07B908FC07E908FC07F300FC073E
:10008000F300FC07F300FC07F300FC076D09FC0715
:10009000F300FC07F300FC07F300FC07F300FC0788
:1000A0000348854604F07CFA00480047B142FC074B
:1000B0000888FC070F4880470F4800470420714616
:1000C000084203D0EFF309800C490847EFF308809A
:1000D0000A49084704207146084203D0EFF309801B
:1000E00007490847EFF3088005490847FEE7FEE7A0
:1000F000FEE7FEE7E545FC07A100FC070701FC075A
:100100000501FC07FEE7FEE7052000070188302215
:100110000A430280018803220A43028070470520B7
:100120000007018830229143018001880322914316
:100130000180704703490A88034B134000021843AB
:100140000880704738300050FFFC000006490A88DC
:10015000064B13400B8006490A8808239A43C007C0
:10016000000F10180880704752000050FFEF000089
:100170002003005006490A88064B13400B800649AD
:100180000A8804239A43C007400F1018088070475C
:1001900052000050FFFD0000200300500448018879
:1001A000890918220A4000888004400F801870478F
:1001B0005400005010B51F21490282010A4007492E
:1001C0000B88074C1C4014430C800A88054B1340D5
:1001D0004007800C1818088010BDC046540000501D
:1001E000FFF90000FFC7000010B5134C2046283867
:1001F0000088C00506D42088402101432020814387
:10020000218010E003F014F9002802D0FF2040B252
:1002100010BD2088C00406D408480088000702D416
:10022000FC2040B210BD06480188012291430180A4
:10023000002040B210BDC0465200005020030050C4
:100240008000005070B50446274E35462A3D288868
:10025000C00502D4FE2040B270BD03F0E9F80028CA
:100260000CD0308880091821014030888004400F6C
:100270004018A04202D9FF2040B270BDB01E0088D5
:10028000C00409D419480088072C05D80821084063
:1002900002D1FB2040B270BD1F204002A1010140ED
:1002A0003088134A02400A433280308811490140A5
:1002B0006007800C081830800F48012141700470DD
:1002C0000E4802880A43028029880020490708D482
:1002D0002988490705D42988490702D4298849076C
:1002E000F2D540B270BDC04654000050200300500B
:1002F000FFF90000FFC700000081FC0780000050EC
:1003000010B518490A88D20529D41F225202830148
:1003100013404A8D144C14401C434C854A8D134B9A
:1003200013404007800C18184885114802880123A3
:10033000134303800888400708D40888400705D481
:100340000888400702D408884007F3D5088D20228A
:100350000243402082430A85002040B210BDFD20A8
:1003600040B210BD2A000050FFF90000FFC7000096
:10037000800000507047C0461A43490040014018B1
:10038000014942527047C0460630005049004001C2
:1003900040180249415A1F2008407047063000505B
:1003A00070B501258D404001064C049E002E01D001
:1003B000055301E0261875801343201849004018A2
:1003C000838070BD0230005001228A404001014903
:1003D000425270470230005001228A4040010149D8
:1003E00042527047043000508A400120884003493F
:1003F0000B88834313430B807047C0461E30005068
:100400004001034A825ACA40012010407047C0464A
:10041000003000500C2901D3002200E001224142AB
:100420004141114008467047F0B584B000930191F6
:100430000A9D681E29468141029210460A384024CE
:100440008440544E3388A343102709283A46039723
:100450001BD8524A1440524AA7186740BF080024CC
:100460004D4A174009D0012F09D0042F09D3241D6C
:100470003A09082F1746F3D205E0012202E00222D2
:1004800000E003221443A2B2039F099C9140194348
:10049000318031883F22914329433180202383409A
:1004A000B18899430A283A463B4D1CD837463B4A07
:1004B000203213403A4A9A185A40920800232A40A0
:1004C00009D0012A09D0042A09D31B1D1609082ABC
:1004D0003246F4D205E0012202E0022200E00322CB
:1004E00013439AB23E4694400C43B48001273A46E7
:1004F0008240B18891430F28039B1DD893B2284CAA
:100500001A195A40631E1A420DD0920800232A403D
:100510000BD0012A0BD0042A0BD31B1D1409082A67
:100520002246F4D207E0002306E03B4303E0022228
:1005300000E0032213439BB2009A9A400A43B28020
:10054000400030180C3801880F229143019A521C48
:100550000A430280029C002C05D4032021468143DB
:100560001148081803E00C2020400E494018A1074C
:10057000C90E80228A40FF238B40016899431143B2
:100580000160002C04D41F200440A74007480760E6
:1005900004B0F0BD0C140050FF7F0000C0FF00004D
:1005A000FFFF010014ED00E000E400E000E100E0E6
:1005B0000A38012319468140354A1288002820D084
:1005C00088071FD4480721D4080724D4C80627D495
:1005D00088062AD448062DD4080630D4C80533D45A
:1005E000880536D4480539D408053CD4C8043FD41E
:1005F000880442D4480445D50E231140D940C8B2DE
:10060000704700231140D940C8B2704702231140FF
:10061000D940C8B2704703231140D940C8B27047CF
:1006200004231140D940C8B2704705231140D94076
:10063000C8B2704706231140D940C8B2704707239B
:100640001140D940C8B2704708231140D940C8B200
:10065000704709231140D940C8B270470A2311409E
:10066000D940C8B270470B231140D940C8B2704777
:100670000C231140D940C8B270470D231140D94016
:10068000C8B270470F231140D940C8B27047C04666
:1006900010140050F0B50A3801252C468440164A43
:1006A00013880F2801D9102020E0A6B21348301873
:1006B000401C7040C603360C0ED087080020104E38
:1006C00037400BD0012F0BD0042F0BD3001D3A095C
:1006D000082F1746F4D207E0002007E0284303E084
:1006E000022200E00322104380B2034AA343814068
:1006F00019431180F0BDC04610140050FEFF0100E8
:10070000FF7F0000F0B50A3801210C468440154AED
:1007100013880F2801D910201FE0A5B2124828180D
:10072000401C6840C5032D0C0ED0860800200F4DDC
:100730002E400BD0012E0BD0042E0BD3001D3709F9
:10074000082E3E46F4D207E0002006E0084303E00E
:10075000022500E00325284380B2A34381401943CA
:100760001180F0BD0E140050FEFF0100FF7F00005D
:10077000C0B202460A3A042A04D88000024A80180D
:10078000283801607047C0460880FC07F0B581B08A
:10079000C0B202460A3A042A3BD8012633469340A7
:1007A0001D4C1C19641C5C40E5032D0C1B4F3D883F
:1007B0000FD00096A4080026194F3C400BD0012C06
:1007C0000BD0042C0BD3361D2109082C0C46F4D277
:1007D00007E0002408E0009902E0022100E0032184
:1007E0000E43B4B2009E0D4F9D433146A1402943B4
:1007F000398091000B4A5258002A02D0904701B02C
:10080000F0BD41B2002904D41F21084086400648AB
:10081000066001B0F0BDC046FEFF01000E1400509E
:10082000FF7F00000880FC0780E200E080B50749F8
:100830000A88012002430A8005490968002901D07D
:10084000884780BD80020349086080BD0E140050B7
:100850000880FC0780E200E080B508480188022299
:100860000A43028006484068002801D0804780BDC6
:100870000120C0020349086080BDC0460E1400502C
:100880000880FC0780E200E080B508480188042267
:100890000A43028006488068002801D0804780BD56
:1008A000012000030349086080BDC0460E140050BB
:1008B0000880FC0780E200E080B508480188082233
:1008C0000A4302800648C068002801D0804780BDE6
:1008D000012040030349086080BDC0460E1400504B
:1008E0000880FC0780E200E080B5084801881022FB
:1008F0000A43028006480069002801D0804780BD75
:10090000012080030349086080BDC0460E140050DA
:100910000880FC0780E200E010B57F241C40074BF4
:100920005C800024002806D10B2904D8012A02D8B3
:10093000481CD40104431C8010BDC0464000005038
:100940000148002101807047400000507F21014094
:10095000014801807047C0464200005002480188AB
:100960007F2008407047C04642000050F0B581B07B
:100970005B4A901E0588002D00D1AFE00127FC04E2
:10098000E807584E584B28D03088000607D4301F4F
:100990000088B11E0988401A4142414100E000210F
:1009A0001780301F0088514A1460BFF34F8FBFF388
:1009B0006F8F002906D03188B943318031880822F1
:1009C000914331804A490A68002A04D0431C486890
:1009D00099B29047444B1C60414A022D7ED3A80730
:1009E00026D5308A000605D4B089F189401A4142E3
:1009F000414100E0002102201080B0893B4A146090
:100A0000BFF34F8FBFF36F8F002906D0318AB943F0
:100A10003182318A08229143318235498A68002A1D
:100A200004D0431CC86899B290472F4B1C602C4AD5
:100A3000042D53D3680726D5308C000605D4B08B1F
:100A4000F18B401A4142414100E000210420108016
:100A5000B08B264A1460BFF34F8FBFF36F8F00290E
:100A600006D0318CB9433184318C082291433184D2
:100A70001F490A69002A04D0431C486999B290476B
:100A8000194B1C60164A082D28D30820054025D094
:100A90001546318E090605D4B18DF28D891A4A4268
:100AA0004A4100E000222880B18D104D2C60BFF338
:100AB0004F8FBFF36F8F002A05D0328EBA43328634
:100AC000328E824332860A488269002A05D0491C48
:100AD000C06989B21D4690472B461C6001B0F0BD2D
:100AE000843600500C36005000E100E080E100E068
:100AF0001C80FC07F0B50A79530140241C40130107
:100B000080251D401609360275192C19D2002025A2
:100B10001540621910241C4012190B785B00082440
:100B20001C40121906241C401219CB79DB079B0CC0
:100B30004C796508ED07ED0CEB18E407240D1B1943
:100B4000134383818A790F2A43D0354A82180423BC
:100B5000DA41931E022B1BD3012A3AD8EFF31083FC
:100B6000012282F310888D792E4C2688F6B2360940
:100B7000B54203D12688F0273743278026880F27E0
:100B8000BE432E432680002B1CD082F3108820E029
:100B9000EFF31083012282F31088224C27880F265E
:100BA00037408D79AF4202D1278837432780268886
:100BB000F027BE432D0135432580002B06D082F35C
:100BC000108806E0002282F3108802E0002282F3FF
:100BD00010888A680280120C4280CA688280120CD7
:100BE000C2800A8A521E42814A88002A00D10A8A9B
:100BF000430838241C404B690B4D2B51521E028177
:100C0000281989694160FF20000608490A68824363
:100C10000120C307D2180A60C00405490860F0BD6E
:100C200000CAFFAF803600501C80FC0710E400E0D3
:100C300000E100E04008382303400248C150C018DA
:100C4000426070471C80FC07828908239A43C900D0
:100C500011438181818901220A4382817047818900
:100C600001229143818181890822914381817047CA
:100C700010B5C1890122D4040C4B1C60BFF34F8F07
:100C8000BFF36F8F838993438381828908239A43BB
:100C900082814006400FC000054B1A58002A02D03E
:100CA0001818406890470348046010BD80E100E0D8
:100CB0001C80FC0700E100E005480188028A0A4325
:100CC000018C1143028E0A43012010407047C04638
:100CD0000C36005080B5024800F004F880BDC046D4
:100CE00000100050F0B589B004468448201A411E17
:100CF0008841400182490818014614310191011DC3
:100D00000291811D0891014618310591054608356B
:100D100001460C31049107460E37079010300390BE
:100D200020467C30069006E003980268002A02D034
:100D300001212046904720890F210140481E0B28A1
:100D4000F9D8C0467844007940008744D507063377
:100D5000067B050606060684E6E7ECE708980188A8
:100D60000298008881421BD3A18802229143A1806E
:100D7000A18880229143A180019909680029DAD0D5
:100D80008847D8E7A28A9206D5D54A1C089B1A80C4
:100D9000079B1B68595C218091B288421146E3D0C1
:100DA0002289C0231340C02BECD1069A12889207E7
:100DB000EBD4C0E7388804990988884237D2001DEF
:100DC000A28AD207B7D02288C31E3B802E6836186D
:100DD000361F32709AB2914228D0A28AD207AAD086
:100DE0002288831E3B802E683618F61E32709AB217
:100DF00091421BD0A28AD2079DD02288431E3B80FD
:100E00002E683618B61E32709AB291420ED0A28A5F
:100E1000D20700D18FE7228838802B681B185B1E11
:100E20001A70021D80B281421046C9D10846A188BD
:100E300001229143A18005990968002900D17AE730
:100E4000884778E703980268002A00D173E7A08AF0
:100E50009E2101406DE7388804990988884236D27E
:100E6000001DA28AD2073BD02288C31E3B802E6879
:100E70003618361F32709AB2914227D0A28AD20712
:100E80002ED02288831E3B802E683618F61E3270C4
:100E90009AB291421AD0A28AD20721D02288431E48
:100EA0003B802E683618B61E32709AB291420DD031
:100EB000A28AD20714D0228838802B681B185B1EA8
:100EC0001A70021D80B281421046CAD10846A1881C
:100ED00001229143A18005990968002900D0884723
:100EE000A08801218843A08005980168002900D1CD
:100EF00021E7388888471EE709B0F0BD0010005090
:100F00003C80FC0780B50248FFF7ECFE80BDC04680
:100F10000011005010B5EFF31082012181F3108809
:100F2000094B984201D0402000E08020074B1C88EC
:100F300004431C80002A02D081F3108810BD0020D9
:100F400080F3108810BDC04600100050040000500F
:100F500010B5882201218152EFF3108281F31088AD
:100F60008023DB43084CA04200D04033074804886C
:100F70001C400480002A02D081F3108810BD00209C
:100F800080F3108810BDC0460010005004000050CF
:100F900010B503467C330246C0321C88E40708D0F3
:100FA0001C88E40705D01C88E40702D01C88E407ED
:100FB000F3D18389802423438381CBB213808AB207
:100FC000120A0280090CC9B281808189A143818102
:100FD00010BDC046044A801A421E90414001034A97
:100FE000101841617047C046001000503C80FC075B
:100FF000044A801A421E90414001034A1018816140
:101000007047C046001000503C80FC07044A801A1C
:10101000421E90414001034A101801617047C046CA
:10102000001000503C80FC07F0B5EFF3108601255E
:1010300085F310883C4A103A904201D0402400E0E9
:1010400080243A4F3B8823433B8004467C34002E67
:1010500002D085F3108802E0002383F3108806464F
:10106000C03623880D682388DB0708D02388DB0778
:1010700005D02388DB0702D02388DB07F3D18389DF
:1010800080273B438381EBB23380ABB21B0A0380E2
:101090002B0CDBB283808389BB4383810B68DD0E1D
:1010A00004262E40DB00DB0E334383810B68DB0F0D
:1010B000A3830D68002D23D5904208D00B791B0720
:1010C0009B0F23840B7903251D40A58418E06B0E2C
:1010D00020242340144E3588A543EB1833800B6839
:1010E0005B0F022423403588A543EB1833800B792E
:1010F0001B079B0F0E4C23800B7903251D40A580F9
:10110000801A421E904140010A4A10188A680277EC
:10111000CA6802610A6942614A69826109790907FC
:10112000890F4177F0BDC0461010005004000050F8
:101130009C1000503C80FC07828A920608D4828A68
:10114000920605D4828A920602D4828A9206F3D548
:1011500001807047F0B5002A33D003251540541E96
:1011600003461433002D29D00E781F88BF0608D4FB
:101170001F88BF0605D41F88BF0602D41F88BF067C
:10118000F3D506804E1C012D05D122463146A4B26E
:10119000032C16D32FE036781F88BF0608D41F888B
:1011A000BF0605D41F88BF0602D41F88BF06F3D52B
:1011B00006808E1C022D05D1921E3146A4B2032C4E
:1011C00019D2F0BD35781E88B60608D41E88B6063A
:1011D00005D41E88B60602D41E88B606F3D505804F
:1011E000D21EC91CA4B2032CEBD304E00480091D59
:1011F000121F1404E5D00C781D88AD0608D41D8894
:10120000AD0605D41D88AD0602D41D88AD06F3D504
:1012100004804C781D88AD0608D41D88AD0605D421
:101220001D88AD0602D41D88AD06F3D504808C78E8
:101230001D88AD0608D41D88AD0605D41D88AD06F1
:1012400002D41D88AD06F3D50480CC781D88AD0688
:10125000CCD41D88AD06C9D41D88AD06C6D41D8862
:10126000AD06F3D5C2E7C046F0B55C4C041B661E64
:10127000B44166015A4FBC19A2800025E580012BBC
:101280001ED0002B6BD1002A69D003251540541EB7
:1012900003461433002D5FD00E781F88BF0608D494
:1012A0001F88BF0605D41F88BF0602D41F88BF064B
:1012B000F3D506804E1C012D2AD1224631464BE043
:1012C000B951464DA84201D0082100E00421454A09
:1012D0001160BFF34F8FBFF36F8F828802231343D8
:1012E00083808288802313438380A84201D0182002
:1012F00000E01020227F9207120E8240FF238340DD
:10130000394804689C43144304603848016026E06F
:1013100036781F88BF0608D41F88BF0605D41F88EB
:10132000BF0602D41F88BF06F3D506808E1C022D8F
:1013300002D1921E31460FE035781E88B60608D4D9
:101340001E88B60605D41E88B60602D41E88B606C8
:10135000F3D50580D21EC91CA4B2032C05D2F0BD62
:101360000480091D121F1404F9D00C781D88AD06E5
:1013700008D41D88AD0605D41D88AD0602D41D888D
:10138000AD06F3D504804C781D88AD0608D41D88C1
:10139000AD0605D41D88AD0602D41D88AD06F3D573
:1013A00004808C781D88AD0608D41D88AD0605D450
:1013B0001D88AD0602D41D88AD06F3D50480CC7817
:1013C0001D88AD06CCD41D88AD06C9D41D88AD06D8
:1013D000C6D41D88AD06F3D5C2E7C0460010005044
:1013E0003C80FC0780E100E000E400E000E100E078
:1013F000818A490608D4818A490605D4818A49062A
:1014000002D4818A4906F3D57047818AC90708D179
:10141000818AC90705D1818AC90702D1818AC90792
:10142000F3D00088C0B2704770B5002A31D00325D0
:101430001540541E03461433002D27D01E88F6078E
:1014400008D11E88F60705D11E88F60702D11E882E
:10145000F607F3D006880E70012D05D1491C2246EF
:10146000A4B2032C15D32FE01E88F60708D11E88DE
:10147000F60705D11E88F60702D11E88F607F3D0BD
:1014800006884E70022D05D1921E891CA4B2032C31
:101490001AD270BD1D88ED0708D11D88ED0705D152
:1014A0001D88ED0702D11D88ED07F3D005888D70EA
:1014B000D21EC91CA4B2032CEBD305E00488CC7067
:1014C000091D121F1404E4D01C88E40708D11C88ED
:1014D000E40705D11C88E40702D11C88E407F3D097
:1014E00004880C701C88E40708D11C88E40705D127
:1014F0001C88E40702D11C88E407F3D004884C70F0
:101500001C88E40708D11C88E40705D11C88E4077F
:1015100002D11C88E407F3D004888C701C88E4078F
:10152000CCD11C88E407C9D11C88E407C6D11C882B
:10153000E407F3D0C2E7C04670B55A4D441B661E9F
:10154000B4416401584E34190026E681A281A1609D
:10155000012B30D0002B57D1002A55D00325154040
:10156000541E03461433002D4BD01E88F60708D1B5
:101570001E88F60705D11E88F60702D11E88F607D9
:10158000F3D006880E70012D02D1491C224638E0A6
:101590001E88F60708D11E88F60705D11E88F607B3
:1015A00002D11E88F607F3D006884E70022D18D19E
:1015B000921E891C25E00422A842114600D0082171
:1015C0003A4B1960BFF34F8FBFF36F8F83880126AB
:1015D0001E438680838813438380A84252D01820FC
:1015E00051E01D88ED0708D11D88ED0705D11D8844
:1015F000ED0702D11D88ED07F3D005888D70D21E4E
:10160000C91CA4B2032C06D270BD0488CC70091D7D
:10161000121F1404F8D01C88E40708D11C88E407C2
:1016200005D11C88E40702D11C88E407F3D00488A4
:101630000C701C88E40708D11C88E40705D11C88BD
:10164000E40702D11C88E407F3D004884C701C889E
:10165000E40708D11C88E40705D11C88E40702D1FF
:101660001C88E407F3D004888C701C88E407CCD174
:101670001C88E407C9D11C88E407C6D11C88E4078C
:10168000F3D0C2E71020227F9207120E8240FF2380
:101690008340074804689C43144304600548016084
:1016A00070BDC046001000503C80FC0780E100E0A7
:1016B00000E400E000E100E007490A46103A9042E9
:1016C00000D070470888202202430A80088802223E
:1016D00002430A807047C04610100050F0B581B038
:1016E0000222531A02E01B1D032B60D0818A490697
:1016F00002D5818A890618D40021022B57D0848A0A
:10170000640602D5848AA4060FD4012B4FD0848AA4
:10171000640602D5848AA40607D4002B47D0848AA5
:101720006406E0D5848AA406DDD5224B1C46103C15
:10173000A04206D119882025A94319801988914310
:101740001980694600250D8009884908AE291DD8F1
:10175000AF214900009E761C6F463E803E888E4237
:1017600014D2009E761C6F463E803E888E420DD27B
:10177000009E761C6F463E803E888E4206D2009EBA
:10178000761C6F463E803E888E42E3D3818A0126D6
:101790000E4071427141002E09D0A04207D1188835
:1017A00020210143198018881043188029460846D3
:1017B00001B0F0BD10100050F0B581B00C460146EC
:1017C000C017009141400E1A00250A2730463946BD
:1017D00002F0C6FE4743F11B303161550A2E14DB7F
:1017E0000A2102F0BDFE601930220A4342706421D2
:1017F000304602F0B5FEAD1C632E0646E5D8691EE4
:101800002846009A002A08D504E0681C2946009A58
:10181000002A02D52D222254881C00212154204662
:1018200002F08AFE411E012927DB011F0220221837
:10183000951E2E786318DF782F70DE708D1C461E83
:10184000AE421ADA551E2E789F782F709E704D1C6E
:10185000A84212DA255C5E7826545D70431C8B42E8
:101860000BDA5378655C55706354021D0B1F491EDB
:10187000801C884210461946D9DB01B0F0BDF0B596
:1018800085B00D464909302437230529224600D367
:101890001A4601932909511804AE3170012700231B
:1018A000039031463A460293FFF7DEFC0F202840B2
:1018B0000A2800D3019C20183070039831463A461C
:1018C000029BFFF7D1FC05B0F0BDB0B50C46054654
:1018D000084602F031FE82B2002328462146FFF777
:1018E000C3FCB0BDF0B585B00D460290480B302664
:1018F000372100910528304600D30098290B401865
:1019000003AC2070012200270298214601923B4639
:10191000FFF7AAFC2805000F0A28314600D30099DA
:101920000818207002982146019A3B46FFF79CFC5C
:10193000E8B241090529314600D300990009081889
:1019400004AC207002982146019A3B46FFF78CFCBC
:101950000F2005400A2D00D3009E701920700298B8
:101960002146019A3B46FFF77FFC05B0F0BDF0B57C
:1019700087B00D460290480F302637210091052888
:10198000304600D30098290F401803AC2070012284
:1019900000270298214601923B46FFF765FC28018B
:1019A000000F0A28314600D30099081820700298C9
:1019B0002146019A3B46FFF757FC2802410F0529B3
:1019C000314600D30099000F081804AC207002982B
:1019D0002146019A3B46FFF747FC2803000F0A28DF
:1019E000314600D300990818207002982146019AC8
:1019F0003B46FFF739FC2804410F0529314600D347
:101A00000099000F081805AC207002982146019A31
:101A10003B46FFF729FC2805000F0A28314600D372
:101A200000990818207002982146019A3B46FFF75A
:101A30001BFCE8B241090529314600D30099000991
:101A4000081806AC207002982146019A3B46FFF721
:101A50000BFC0F2005400A2D00D3009E701920704A
:101A600002982146019A3B46FFF7FEFB07B0F0BD06
:101A7000F0B583B0FF2972DC0D460190C8174140D4
:101A80000E1A00240A273046394602F069FD474302
:101A9000F11B303102AA11550A2E15DB0A2102F082
:101AA0005FFD02A8001930220A43427064213046CB
:101AB00002F056FDA41C632E0646E3D8601E2146A4
:101AC000019E002D09D504E0611C2046019E002DD9
:101AD00003D502AA2D235354811C02A8002242548C
:101AE00002F02AFD411E01292FDB011F022002AA5C
:101AF00013189B1E1C785218D5781D70D4708A1C40
:101B0000431E934221DA02AA13185B1E1C78521856
:101B100095781D7094704A1C904216DA02AA135CE4
:101B20005418657815546370421C8A420DDA02AA73
:101B300013185C78555C5D705454021D0B1F491ED0
:101B4000801C884210461946D1DB02AD284602F0BF
:101B5000F3FC82B2002330462946FFF785FB03B031
:101B6000F0BD0000074840698189C90708D0818914
:101B7000C90705D08189C90702D08189C907F3D176
:101B80007047C0467C80FC07074800698189C90707
:101B900008D08189C90705D08189C90702D0818908
:101BA000C907F3D17047C0467C80FC07F0B587B009
:101BB000039205910446F8480746143F39884906C0
:101BC000C90E1CD04A080A43950815430909294340
:101BD0000A0A0A43110C1143C9434A08EF4D154044
:101BE000491BEF4A8D081140154049190A09891807
:101BF000EC4A0A40EC495143090E1D3900E003212B
:101C00000546183D2A881F26B2432A802A880226C4
:101C1000069632432A802A88042616432E80CA1745
:101C20005140891AC9B23A88022B5ED102295CD090
:101C30007026104630401038411E88415106C90EAA
:101C4000069900D041000620C343D8480069828924
:101C500002931A408918818105998180090CC180FD
:101C60000399491E018103914181D14900220492C7
:101C7000FEF7E0FFCD48006901210591FEF7E4FF82
:101C80002888102101432980C84840698189402261
:101C90000A43828139880E40103E721E96414906E1
:101CA000C90E01D0710006918189029A1140069AED
:101CB000511881810480210C418003990181418167
:101CC000049C21462246FEF7B5FFB84840692146EC
:101CD000FEF7BAFF28880821014329802888059942
:101CE00008432880002007B0F0BD04912B88012113
:101CF0000B432B80039F002F00D196E15206D20E9A
:101D0000521CD2080692049A022A2AD33A460A4062
:101D100000920E034B03012F5AD1059D02950099A5
:101D2000002900D181E10188194208D001881942B7
:101D300005D00188194202D001881942F3D1618887
:101D4000018221880181049A0188314236D00188BC
:101D5000314233D00188314230D001883142F3D151
:101D60002CE00E034F03002A00D1ADE0039A134686
:101D70000B400193012A00D0CFE0059D0295019907
:101D8000002900D151E10188394208D00188394247
:101D900005D00188394202D001883942F3D1218827
:101DA0000181049A0188314208D00188314205D06E
:101DB0000188314202D001883142F3D1002A00D19A
:101DC0002AE1012A00D02AE18188029A11802CE1BF
:101DD0008F430021059D029503970DE08288078AB5
:101DE0003F04BA18059F04C70597039F069AA418D5
:101DF000891C8AB2BA4292D002881A4208D002885C
:101E00001A4205D002881A4202D002881A42F3D13F
:101E100062880282228802810288324208D00288C7
:101E2000324205D00288324202D002883242F3D1D7
:101E3000049A002A0DD0012A0FD1828801943C46D1
:101E40002F46029D2A80AD1C02953D462746019CE7
:101E50000BE082882A706D1C07E08288078A3F04A5
:101E6000BA18059F04C70597039F069AA41802880D
:101E70001A4208D002881A4205D002881A4202D0BB
:101E800002881A42F3D16288028222880281028883
:101E9000324208D00288324205D00288324202D053
:101EA00002883242F3D1049A002A09D0012A95D13E
:101EB00082882F46029D2A80AD1C02953D4694E7FC
:101EC00082882A706D1C91E7039A13460B40049395
:101ED000012A00D0BAE00499002900D1A5E00188C8
:101EE000394208D00188394205D00188394202D0F0
:101EF00001883942F3D1217801810188314208D02B
:101F00000188314205D00188314202D00188314236
:101F1000F3D18188059A117087E08A4303920021EA
:101F2000059D02950EE08288038A1B049A18059B82
:101F300004C30593069AA418891C8AB2039B9A428B
:101F400000D11CE702883A4208D002883A4205D004
:101F500002883A4202D002883A42F3D122880281B2
:101F60000288324208D00288324205D002883242CA
:101F700002D002883242F3D1049A012A05D0002A05
:101F800018D182882A706D1C1BE08288029B1A80FF
:101F90009B1C029315E0C04618120050555555552C
:101FA000333333330F0F0F0F010101017C80FC0726
:101FB000E520FC078288038A1B049A18059B04C34A
:101FC0000593069AA41802883A4208D002883A4239
:101FD00005D002883A4202D002883A42F3D12288E0
:101FE00002810288324208D00288324205D002883B
:101FF000324202D002883242F3D1049A002A07D03A
:10200000012A90D18288029B1A809B1C029391E73F
:1020100082882A706D1C8DE78188297005E081888F
:10202000028A12045118059A11600021425E002AAA
:1020300000D457E6425E002A00D453E6425E002AEE
:1020400000D44FE6415E0029EFD44BE68A43039269
:1020500000220CE08188059D697006995C18AD1C12
:102060000595921C91B2039B994200D133E70188F8
:10207000394208D00188394205D00188394202D05E
:1020800001883942F3D1217801810188314208D099
:102090000188314205D00188314202D001883142A5
:1020A000F3D18188059B197006996318018839421C
:1020B00008D00188394205D00188394202D0018810
:1020C0003942F3D11978018101883142C2D00188A7
:1020D0003142BFD001883142BCD001883142F3D1B6
:1020E000B8E7C04610B50C480278D2070DD10B4AAC
:1020F0000023D45E002C08D5D45E002C05D5D45E18
:10210000002C02D5D35E002BF2D4C268002A01D085
:102110000846904710BDC0467C80FC07181200504E
:1021200010B57D210A020A4C904204D121887F20FB
:102130000843208010BD4100104602F011FA2188AA
:102140007F229143401EC0B20843208010BDC0468C
:102150000812005010B5EFF31081012080F31088B1
:102160008202064B1C8814431C80002902D080F395
:10217000108810BD002080F3108810BD04000050AE
:1021800010B5EFF31081012080F31088064A138800
:10219000064C1C401480002902D080F3108810BD2A
:1021A000002080F3108810BD04000050FFFB0000E9
:1021B00003490A8803239A4302430A807047C046B2
:1021C000041200500C49022809D001280CD0002824
:1021D0000A881C20104360229043088070470A88B8
:1021E0007C201043088070470A883C20104340221E
:1021F000904308807047C0460412005004490A7892
:10220000F12313404007000F181808707047C046AC
:102210007C80FC07014948607047C0467C80FC0711
:10222000014988607047C0467C80FC070149C8604E
:102230007047C0467C80FC07F0B58BB00746EFF3D3
:102240001081012080F310888202574B1C881443B0
:102250001C80002902D080F3108802E0002181F365
:102260001088524C261F2021029131803A79072193
:102270001140022907D0012909D0002922881C21F8
:102280001143602207E022887C21114304E0228868
:102290003C21114340229143218039782288032335
:1022A0009A430907490F114321803A7823888021F6
:1022B0008B43D207120E9A1822803A7802403C4D86
:1022C0002878FE2303409818287000232381A088D3
:1022D0000843A0803878C00725D12878F121014033
:1022E000387980080E2202408818287079887D206D
:1022F0000002814202D1A1887F200AE049001D46E8
:1023000002F02EF92B462A4DA1887F229143401ED0
:10231000C0B20843A080B87D318840229143C007F5
:10232000400E081830800396B8686860F868A860A6
:102330003869E8601F4E3A46387DC007304601D004
:1023400030462030286104AF7B80042139703B8205
:10235000FB807B711546517D0901491D39710A9336
:102360000993019307932146183106913946FEF7E8
:10237000C1FB287DC00701D0303600E010360C4884
:1023800046613879F9210140881C38711C34079462
:1023900030463946FEF7AEFB03990888029A90430F
:1023A000088001980BB0F0BD0400005004120050EA
:1023B0007C80FC07003600500548018820229143AC
:1023C0000180044909780907490F81847047C04694
:1023D000001200507C80FC070348002181840188A2
:1023E00020220A430280704700120050F0B581B0ED
:1023F000F14B1B78DB0724D10091F04B19461439BF
:102400000D886D06ED0E20D06E082E43B7083743B9
:102410002D093D432E0A2E43350C3543ED436E08FE
:10242000E74F3740ED1BE74EAF0835403740ED1919
:102430002E09AD19E44E2E40E44D75432D0E1D3D81
:1024400004E0FF2460B201B0F0BD03251E46183E33
:1024500037881F24A7433780348802273C433480C1
:10246000EC1765402C1BE5B2022A32D1022D30D088
:10247000F84D6A69938940241C439481098870232C
:102480000B40103B5C1EA3414906C90E00D05F0003
:10249000918906239943791891811080000C50800E
:1024A0000098401E10815081EB49002410462246BE
:1024B000FEF7C0FB686901252946FEF7C5FB308899
:1024C00008210143318030882843308060B201B058
:1024D000F0BD0A883188012421433180009F002FFC
:1024E00000D10DE15106C90E491CCA08022D42D384
:1024F00003263D4635406403791E89B203297AD20A
:10250000002D00D1FCE01988214208D01988214211
:1025100005D01988214202D019882142F3D141887F
:10252000198201881981012D00D1E9E080181988EC
:10253000214208D01988214205D01988214202D0B1
:1025400019882142F3D14188198201881981022D0D
:1025500000D1D5E01988214208D01988214205D040
:102560001988214202D019882142F3D18118498863
:102570001982805AC3E064030326002D00D187E04E
:102580003D463540791E89B2032900D3CCE0002DA9
:1025900000D1B5E01988214208D01988214205D020
:1025A0001988214202D019882142F3D1018819816A
:1025B000012D00D1A4E080181988214208D0198883
:1025C000214205D01988214202D019882142F3D135
:1025D00001881981022D00D192E01988214208D08A
:1025E0001988214205D01988214202D01988214238
:1025F000F3D1805A83E0B743002609E0418819826D
:10260000018819818018361DB1B2B94200D177E72F
:102610001988214208D01988214205D01988214201
:1026200002D019882142F3D1418819820188198189
:1026300080181988214208D01988214205D01988AC
:10264000214202D019882142F3D1418819820188A0
:10265000198180181988214208D01988214205D093
:102660001988214202D019882142F3D14188198268
:1026700001881981801819882142BFD01988214208
:10268000BCD019882142B9D019882142F3D1B5E7CD
:102690003D463540791E89B2032900D389E0002DDB
:1026A0002ED01988214208D01988214205D01988D6
:1026B000214202D019882142F3D101781981012DDC
:1026C0001ED080181988214208D01988214205D0CF
:1026D0001988214202D019882142F3D10178198149
:1026E000022D0DD01988214208D01988214205D029
:1026F0001988214202D019882142F3D1805C1881C7
:102700000024185F002800D49CE60024185F0028ED
:1027100000D497E60024185F002800D492E6002435
:10272000185F0028ECD48DE6B743002607E0018847
:1027300019818018361DB1B2B94200D127E7198836
:10274000214208D01988214205D01988214202D09F
:1027500019882142F3D101881981801819882142F2
:1027600008D01988214205D01988214202D0198841
:102770002142F3D10188198180181988214208D09B
:102780001988214205D01988214202D01988214296
:10279000F3D101881981801819882142C7D019887E
:1027A0002142C4D019882142C1D019882142F3D1D5
:1027B000BDE7B743002613E07C80FC0718120050E9
:1027C00055555555333333330F0F0F0F01010101A9
:1027D000017819818018361DB1B2B94200D15EE787
:1027E0001988214208D01988214205D01988214230
:1027F00002D019882142F3D10178198180181988F3
:10280000214208D01988214205D01988214202D0DE
:1028100019882142F3D10178198180181988214241
:1028200008D01988214205D01988214202D0198880
:102830002142F3D101781981801819882142C7D02B
:1028400019882142C4D019882142C1D01988214257
:10285000F3D1BDE77C80FC079D2EFC07F0B587B067
:10286000E24B1B78DB0724D1E14B1C46143C04945B
:1028700024886406E40E20D065082543AE082E4364
:1028800024093443250A25432C0C2C43E4436508D2
:10289000FD4E2E40A41BFD4DA6082C402E40A41931
:1028A00025096419FA4D2540FA4C6C43240E1D3C51
:1028B00004E0FF2460B207B0F0BD03241E46183EBA
:1028C00035881F27BD4335803588022705973D434E
:1028D0003580358804272F433780E5176C40641B0B
:1028E000E4B2022A61D1022C5FD0049A13887025C9
:1028F0001A462A40103A541EA2415B06DB0E059B85
:1029000000D053000622D743DE4A12699489029709
:102910003C401B1993819080000CD0804F1E178182
:1029200006A80024019004705781DB491046224616
:10293000FEF780F9D348006901210391FEF784F97D
:102940003088102101433180CE484069818940227E
:1029500091438181049909880D40103D6A1E95417B
:102960004906C90E01D0690005918189029A11407A
:10297000059A5118818101990180090C41800781D4
:10298000478121462246FEF755F9BE484069214657
:10299000FEF75AF9308808210143318030880399C5
:1029A0000843308060B207B0F0BD328801273A4357
:1029B000328000297CD00A463A40002C28D0012CD5
:1029C0004DD105923A037C03012900D084E005999A
:1029D00000296DD01988214208D01988214205D0DC
:1029E0001988214202D019882142F3D1002119828D
:1029F00019811988114208D01988114205D0198807
:102A0000114202D019881142F3D1998801804FE018
:102A100005923A037C03012900D0A0E00599002922
:102A200046D01988214208D01988214205D019883A
:102A3000214202D019882142F3D100211982198143
:102A40001988114208D01988114205D019881142FD
:102A500002D019881142F3D19988017028E00492BC
:102A60003A037C03012900D0BCE0049900291FD05F
:102A70001988214208D01988214205D0198821429D
:102A800002D019882142F3D10021198219811988B5
:102A9000114208D01988114205D01988114202D07C
:102AA00019881142F3D199881A8A120451180160C9
:102AB0000024185F002800D4FCE60024185F0028DA
:102AC00000D4F7E60024185F002800D4F2E60024C2
:102AD000185F0028ECD4EDE6B943002607E09D8896
:102AE0004580001DB61CB5B28D4200D16FE71F882E
:102AF000274208D01F88274205D01F88274202D0CE
:102B00001F882742F3D100271F821F811D8815428D
:102B100008D01D88154205D01D88154202D01D8899
:102B20001542F3D19D8805801D88254208D01D8857
:102B3000254205D01D88254202D01D882542F3D1AB
:102B40001F821F811D881542C9D01D881542C6D01D
:102B50001D881542C3D01D881542F3D1BFE7B94384
:102B6000002607E09D884570801CB61CB5B28D42DA
:102B700000D153E71F88274208D01F88274205D07D
:102B80001F88274202D01F882742F3D100271F82C7
:102B90001F811D88154208D01D88154205D01D884B
:102BA000154202D01D881542F3D19D8805701D88FD
:102BB000254208D01D88254205D01D88254202D017
:102BC0001D882542F3D11F821F811D881542C9D05F
:102BD0001D881542C6D01D881542C3D01D881542D8
:102BE000F3D1BFE7B943059100210FE07C80FC07DA
:102BF000181200509D881E8A3604751945600830E9
:102C0000891C8DB2059EB54200D12EE71F88274250
:102C100008D01F88274205D01F88274202D01F886E
:102C20002742F3D100271F821F811D88154208D03B
:102C30001D88154205D01D88154202D01D881542F9
:102C4000F3D19D881E8A3604751905601D882542BA
:102C500008D01D88254205D01D88254202D01D8838
:102C60002542F3D11F821F811D881542C2D01D88C5
:102C70001542BFD01D881542BCD01D881542F3D126
:102C8000B8E7C0467C80FC07555555553333333380
:102C90000F0F0F0F01010101D92EFC0710B5064CD3
:102CA0002478E40704D1FEF781FF002040B210BD74
:102CB000FF2040B210BDC0467C80FC0710B53249F1
:102CC0008A885206D20E1CD0530813439C081C431A
:102CD00012092243130A13431A0C1A43D24353080E
:102CE0002A4C1C40121B2A4B94081A401C401219F3
:102CF0001309D218274B1340274A5A43120E1D3A84
:102D000000E003220B881F24A3430B800B880224BE
:102D10001C430C800B8804241C430C800C8801236A
:102D20001C430C80D4176240121BD2B2022A01D37A
:102D3000040C0C85088418030B8B034208D00B8B02
:102D4000034205D00B8B034202D00B8B0342F3D11D
:102D5000022A02D3088D020402E0002A03D00022D6
:102D6000888B104301E0888BC0B218228B5E002B49
:102D700008D58B5E002B05D58B5E002B02D58A5EB5
:102D8000002AF2D410BDC0460012005055555555CA
:102D9000333333330F0F0F0F01010101B0B5394940
:102DA0000B88202293430B80374B1B781B075B0F4C
:102DB0008B848B885B06DB0E1CD05C081C43A5084B
:102DC00025431B092B431C0A1C43230C2343DB43D1
:102DD0005C082E4D25405B1B2D4C9D082340254053
:102DE0005B191C091B192B4C1C402B4B63431B0EFE
:102DF0001D3B00E003230C881F25AC430C800C888E
:102E0000022525430D800C88042525430D800D885F
:102E1000012425430D80DD176B405B1BDBB2022BC9
:102E200001D3050C0D85088420030C8B044208D0C7
:102E30000C8B044205D00C8B044202D00C8B044254
:102E4000F3D1022B02D3088D030402E0002B03D040
:102E50000023888B184301E0888BC0B21823CC5E16
:102E6000002C08D5CC5E002C05D5CC5E002C02D5FC
:102E7000CB5E002BF2D400238B840B8813430B8092
:102E8000B0BDC046001200507C80FC07555555551A
:102E9000333333330F0F0F0F0101010110B50C480D
:102EA0000278D2070DD10B4A0023D45E002C08D53E
:102EB000D45E002C05D5D45E002C02D5D35E002B49
:102EC000F2D44268002A01D00846904710BDC0469F
:102ED0007C80FC071812005010B50C480278D2070D
:102EE0000DD10B4A0023D45E002C08D5D45E002CF3
:102EF00005D5D45E002C02D5D35E002BF2D48268B7
:102F0000002A01D00846904710BDC0467C80FC07CF
:102F1000181200507047C04610B582B0334908807F
:102F200033494A8B01239A434A8300220192019C30
:102F3000132C17DC019C641C0194019C132C11DCE4
:102F4000019C641C0194019C132C0BDC019C641CEF
:102F50000194019C132C05DC019C641C0194019CD0
:102F6000142CE7DB0C881C4302239C430C800B8849
:102F70005B0608D40B885B0605D40B885B0602D47D
:102F80000B885B06F3D50B46083B18800092E120C6
:102F9000C000009A824217DA009A521C0092009AEE
:102FA000824211DA009A521C0092009A82420BDA95
:102FB000009A521C0092009A824205DA009A521C32
:102FC0000092009A8242E7DB08880322904308803F
:102FD0000888000608D40888000605D4088800067A
:102FE00002D408880006F3D502B010BD9480FC0717
:102FF0000A000050F0B587B0CD4808240480FDF7E2
:10300000B9F9CC4E35461C3D288805AF3880388844
:10301000C046C046388804210491C943084202D002
:103020000020288005E030461038018801229143B5
:1030300001800F2002908002318801433180F449E1
:1030400008462E380388234303800B880625AB43AC
:103050000B8032460126B30317881F43178003886D
:10306000EC4F1F4007800B462C3B1F882F43A74384
:103070001F80E94D03942C8CE84AFF320F881740DB
:10308000E205019628D4029A12030324640227431E
:103090000F800C8814430C80DC4C2288039FBA43B9
:1030A000228022880424A243D84C22801A88DD4C36
:1030B00014401C800A8832430A803C46D34E298C37
:1030C000490723D4298C490720D4298C49071DD4CA
:1030D000298C4907F3D519E0B20217430F800A88FB
:1030E000CF4B1340F2039A180A80C84F3A88039CCA
:1030F00022433A803A88049B9A433A800A88B24332
:103100000A8039884022914339803E463188032223
:103110000392114331800188202211434023DB4375
:1031200019400180B08810431840B080A8898026DB
:1031300030431840A881E88CFF218843E884E88D5B
:10314000204314218843E88500F07EF90220029094
:1031500000F0D8F9B44C2068C1B20C20AA2901466D
:1031600000D004992A460A3A13888343C81810806D
:10317000C046C04600F0B4FE01F08EF800286CD0C6
:1031800001F08AF8A9490880698B019FB9436983D6
:1031900000210691069A132A17DC069A521C069201
:1031A000069A132A11DC069A521C0692069A132AD2
:1031B0000BDC069A521C0692069A132A05DC069A24
:1031C000521C0692069A142AE7DB2A883A43029B8D
:1031D0009A432A802A88520608D42A88520605D49F
:1031E0002A88520602D42A885206F3D52A46083A7B
:1031F00010800691E120C0000699814217DA0699F5
:10320000491C06910699814211DA0699491C0691DA
:10321000069981420BDA0699491C0691069981426A
:1032200005DA0699491C069106998142E7DB288850
:103230000399884328802888000608D42888000637
:1032400005D42888000602D428880006F3D500F0AB
:10325000F7FD01F019F907B0F0BD2068C0B2AA2847
:103260006AD172480680688B019FB843688300204A
:1032700006900699132917DC0699491C06910699B0
:10328000132911DC0699491C0691069913290BDCB8
:103290000699491C06910699132905DC0699491CD3
:1032A000069106991429E7DB29883943029A91434C
:1032B00029802988490608D42988490605D42988FF
:1032C000490602D429884906F3D5294608390E80D3
:1032D0000690E120C0000699814217DA0699491C40
:1032E00006910699814211DA0699491C06910699C0
:1032F00081420BDA0699491C06910699814205DA4A
:103300000699491C069106998142E7DB28880399B2
:10331000884328802888000699D42888000696D4F7
:103320002888000693D428880006F3D58FE7C04686
:1033300000330050200300503C496E200880698B08
:10334000019FB943698300210691069A132A17DC6D
:10335000069A521C0692069A132A11DC069A521CEF
:103360000692069A132A0BDC069A521C0692069ABB
:10337000132A05DC069A521C0692069A142AE7DBE9
:103380002A883A43029B9A432A802A88520608D404
:103390002A88520605D42A88520602D42A88520660
:1033A000F3D52A46083A10800691E120C00006991C
:1033B000814217DA0699491C06910699814211DA71
:1033C0000699491C0691069981420BDA0699491C17
:1033D00006910699814205DA0699491C06910699DB
:1033E0008142E7DB288803998843288028880006E3
:1033F00000D52CE72888000600D528E72888000695
:1034000000D524E728880006F0D520E720030050E7
:1034100080000050FFBF00000A00005000F0FFFFD6
:10342000FF0F0000FFF90000D07FF8079480FC0731
:10343000014800787047C0469680FC07014800218B
:10344000017070479680FC0770B5EFF3108501247A
:1034500084F3108805200607708DC00509D516482D
:103460000470FCF79BFE1549087015480088204041
:10347000487030888021014331801248011F0A685A
:1034800007239A430A600168490708D4016849077D
:1034900005D40168490702D401684907F3D50A49F0
:1034A000C1600A490161002D02D084F3108870BD0B
:1034B000002080F3108870BD9680FC070081FC0717
:1034C000800000500400F4070F009909090404A4C7
:1034D000800003A1085809490860094848607047FE
:1034E0000100990903009909070099090F0099093A
:1034F0001F1099092F2099095F5199091000F407AD
:10350000090404A4F0B581B00446304D2E1F306884
:1035100007273840694608700878A04201D101B0F9
:10352000F0BD2B480088C0053FD5201F032803D3DA
:10353000032C1ED0022C38D1FCF730FE0A2802D80A
:103540000B20FCF737FE23480188C907204B2CD1FC
:10355000018801220A4302801888400725D4188870
:10356000400722D4188840071FD418884007F3D595
:103570001BE0FCF713FE122802D81320FCF71AFEFA
:1035800014480188C907124B0FD1018801220A4350
:1035900002801888400708D41888400705D4188886
:1035A000400702D418884007F3D53068B843204359
:1035B000306028684007B2D428684007AFD4286834
:1035C0004007ACD428684007F3D5A8E70400F40707
:1035D0002A00005080000050F0B587B00D4602462A
:1035E000744E371F386807210391084004A90870FA
:1035F00001200090030208786F4C0328029560D1E7
:10360000B26075603068C00708D13068C00705D166
:103610003068C00702D13068C007F3D0386803991A
:10362000084005A908700878042800D083E0FF202E
:10363000C104AD006858904200D0B7E002913868EC
:103640000399084006A9087008780528104633D069
:10365000208818421CD00192FCF7A0FD0A2802D84D
:103660000B20FCF7A7FD55480188C907019A0FD127
:103670000188009B194301802088400708D42088D6
:10368000400705D42088400702D420884007F3D59E
:1036900038680521014302208143396030684007C2
:1036A00008D43068400705D43068400702D4306839
:1036B0004007F3D502982858811A4842484107B07C
:1036C000F0BD208818421FD01D460192FCF766FD10
:1036D000122802D81320FCF76DFD38480188C9076D
:1036E000019A2B4610D10188009B19432B4601807B
:1036F0002088400708D42088400705D42088400748
:1037000002D420884007F3D5386803210143042000
:1037100081433960029D3068400700D570E730680A
:10372000400700D56CE73068400700D568E730688F
:103730004007F0D564E7208818421FD01D4601924B
:10374000FCF72CFD0A2802D80B20FCF733FD1B48A0
:103750000188C907019A2B4610D10188009B1943A3
:103760002B4601802088400708D42088400705D4D4
:103770002088400702D420884007F3D53868042108
:1037800001430320C04308403860029D3068400771
:1037900000D54CE73068400700D548E7306840075F
:1037A00000D544E730684007F0D540E7002007B077
:1037B000F0BDC0460400F4072A000050800000500D
:1037C000F0B581B00446214D2E1F3068072101401D
:1037D000684601700078022805D1FF20C004A100CE
:1037E000085801B0F0BD1A4F3888C0051AD5FCF74B
:1037F000D5FC0A2802D80B20FCF7DCFC1548018810
:10380000C9070FD1018801220A4302803888400786
:1038100008D43888400705D43888400702D438884F
:103820004007F3D530680221014305208143316010
:1038300028684007D1D428684007CED428684007BC
:10384000CBD428684007F3D5C7E7C0460400F40787
:103850002A00005080000050F0B583B016460C4698
:1038600005466B4F3B1F18680721014002A80170F5
:10387000007803283BD1002E2BD00321304608408E
:10388000721E032A68D2002823D02968B9607C60A0
:103890003968890708D43968890705D439688907E0
:1038A00002D439688907F3D5012812D06968B96054
:1038B000611C79603968890708D43968890705D49B
:1038C0003968890702D439688907F3D5022800D0FE
:1038D0008AE03868C00708D13868C00705D1386861
:1038E000C00702D13868C007F3D003B0F0BD494823
:1038F0000088C0051DD50193FCF750FC122802D8A2
:103900001320FCF757FC44480188C907019B10D1DC
:10391000018801220A433F4902800888400708D4F1
:103920000888400705D40888400702D40888400763
:10393000F3D51868032101430420814319603868D6
:10394000400798D43868400795D43868400792D427
:1039500038684007F3D58EE78E43002104E0091D47
:10396000241D1035B1428ED02A68BA607C603A6856
:10397000920708D43A68920705D43A68920702D4AD
:103980003A689207F3D56A68BA60621C7A603A684E
:10399000920708D43A68920705D43A68920702D48D
:1039A0003A689207F3D5AA68BA60A21C7A603A68AE
:1039B000920708D43A68920705D43A68920702D46D
:1039C0003A689207F3D5EA68BA60E21C7A603A680E
:1039D0009207C4D43A689207C1D43A689207BED419
:1039E0003A689207F3D5BAE7A868B860A01C786077
:1039F0003868800700D56CE73868800700D568E72D
:103A00003868800700D564E738688007F0D560E73C
:103A10000400F4072A00005080000050F0B591B077
:103A2000144607460C91FFF717FFC44D2B1F18686B
:103A300007210B9108400FA90870087804280D93FE
:103A40004ED1002C00D198E0FF20C0040C998900D1
:103A50000A583B68934200D02FE103220192121BC7
:103A6000069202220292121B08924018014610315F
:103A70000491011D09910146083107910C30059010
:103A8000039460420A90002504202C4603460A98BD
:103A9000C01803285BD009994A5939467E197768BE
:103AA000974258D1089AD218042A56D0079A5259E8
:103AB000B768974253D1069AD218042A51D0059A72
:103AC0005259F76897424ED1241D00284DD00498D2
:103AD00042593669181D103596420F46D6D046E039
:103AE0002646974C2088C0051BD5FCF757FB0A28B3
:103AF00002D80B20FCF75EFB92480188C9070D9B9A
:103B00000FD1018801220A4302802088400708D48F
:103B10002088400705D42088400702D42088400729
:103B2000F3D51868042101430320C04308401860FE
:103B300034462868400784D42868400781D4286820
:103B4000400700D57DE728684007F2D579E70120D6
:103B5000044323460BE0DB1E08E09B1E06E00298B0
:103B600002E05B1E02E00198044323460F46039CDB
:103B7000A342724D0D9B00D29FE018680B9908403C
:103B800010A90870087805284FD1002C00D197E0C3
:103B9000FF20C0040C9989000A583B68934200D06A
:103BA0008BE003220492121B079202220292121B44
:103BB00009924018014610310591011D0A910146F4
:103BC000083108910C300690039460420C90002557
:103BD00004202C4603460C98C01803285BD03A46B4
:103BE0000A994F59114656197268BA4255D1099A25
:103BF000D218042A53D0089A5259B768974250D124
:103C0000079AD218042A4ED0069A5259F76897425A
:103C10004BD1241D00284AD0059842593669181DF9
:103C2000103596420F46D5D042E02646444C2088B7
:103C3000C0051BD5FCF7B2FA0A2802D80B20FCF706
:103C4000B9FA40480188C9070D9B0FD101880122AC
:103C50000A4302802088400708D42088400705D402
:103C60002088400702D420884007F3D51868052132
:103C7000014302208143196034462868400784D4F8
:103C80002868400781D42868400700D57DE7286868
:103C90004007F2D579E7012008E0DB1E08E09B1E13
:103CA00006E0029802E05B1E02E00498044323460B
:103CB00003988342214D0D9B02D2002011B0F0BD2C
:103CC00018680B9908400EA908700878032831D0AD
:103CD0001B4C2088C0051BD5FCF760FA122802D8BF
:103CE0001320FCF767FA17480188C9070D9B0FD10D
:103CF000018801220A4302802088400708D42088D6
:103D0000400705D42088400702D420884007F3D517
:103D10001868032101430420814319602868400783
:103D200008D42868400705D42868400702D42868CA
:103D30004007F3D5012011B0F0BDC0460400F407E0
:103D40002A00005080000050F0B583B016460D46A2
:103D50000446384F3B1F18680721014002A8017034
:103D60000078022830D1002E2CD00322304610409B
:103D7000FF21C904731E032B16D39643AA008A1889
:103D80000C3213460C3B1B6823601346083B1B6830
:103D90006360131F1B68A3601368E3601034361F51
:103DA00010322D1D002EECD100280BD0AA00535844
:103DB0002360012806D089184A686260022801D071
:103DC0008868A06003B0F0BD1B480088C0051DD501
:103DD0000193FCF7E3F90A2802D80B20FCF7EAF973
:103DE00016480188C907019B10D1018801220A43A6
:103DF000114902800888400708D40888400705D484
:103E00000888400702D408884007F3D518680221C3
:103E1000014305208143196038684007A3D43868FE
:103E20004007A0D4386840079DD438684007F3D5D0
:103E300099E7C0460400F4072A00005080000050B3
:103E4000F0B581B0EFF31085012484F310880520CC
:103E50000007028880210A4302801B4A131F1E6844
:103E60000727BE431E6013685B0708D413685B070F
:103E700005D413685B0702D413685B07F3D5134BB3
:103E8000D360134B136102888A430280408DC005C2
:103E900009D51048002101700F4E3078FCF78AF9DF
:103EA0007078002805D0002D09D084F3108801B067
:103EB000F0BD0A480188A1430180002DF5D1002002
:103EC00080F3108801B0F0BD0400F4070F009909D9
:103ED000090404A49680FC070081FC0780000050C0
:103EE000F0B589B058249148002505530126304685
:103EF000C046C0468E4B181F00688E49884200D0CD
:103F0000E7E00496029503940F2004070425184661
:103F1000059409E0854A505226E05819001F1946B9
:103F2000EC31884200D3D6E000680890089921401F
:103F300009273A070898914227D108990C0AE6B256
:103F4000C0B2801F11280FD8784400794000874400
:103F500010590B0B0B0B0B0B0B0B0B6B8095A10B69
:103F6000A408E8585421D5E7B0002818051D059C81
:103F7000D3E7E9186D4A0398105CC0001018B2002E
:103F800000F0C8FA6A4B039949E0800F10D00898F6
:103F90006B4988420CD828460830684E3146263195
:103FA000089A8A4224D1E958664A51800546B4E706
:103FB0000898204007210907884205D10020C04603
:103FC000C0465B4B2D1DA8E7089820400499C907FF
:103FD00088420BD00898204005214907884205D027
:103FE0000898204003214907884264D12D1D94E799
:103FF0000899B14255D1E95856224C4B99524C4B35
:1040000005468AE7E91859220192484B985CC0009E
:1040100018181030B20000F07DFA454B0199434A60
:10402000505C001950549FE7E85839464143EA581C
:10403000120C891A09B2C9083C4B4033D98080B2AE
:10404000101A81083C4A11400818401C9880384BCF
:104050008AE7E85839464143EA58120C891A09B2EE
:10406000C908324B4033598180B2101A8108324A54
:1040700011400818401C18812D4B75E7E918029C67
:10408000A00006AA1018B20000F044FA284B341918
:10409000029469E7E85852213CE7E858234908644C
:1040A00062E731462231089A8A4208D1E958254A06
:1040B0009180054631E70898401C0CD02DE7314629
:1040C0001E31089A8A4202D1E9581E4AD18005461B
:1040D00023E7FF201FE0154C0399605C4008605403
:1040E0005920215C4908215420464030069981819D
:1040F00007994F430A0CBB1A1BB2DB08038289B233
:10410000511A8A080C4B1A405118491CC181818AE6
:104110000020002902D040B209B0F0BD7D21C900C5
:104120005422A15240B209B0F0BDC0469880FC07AD
:10413000D47EF807A5A5A5A5FF3F0000020000500A
:104140004C4200500080FC07F0B581B05824194F54
:10415000385D00282CD00026174B3D46009409E01E
:1041600028682346009C69680160385D0835761C24
:1041700086421DD228689842F5D16868C001400C7B
:104180001846F0D01C46C046C0460928E8D903208E
:10419000000206CD10401204920E10180860083D6F
:1041A000E88806490840064908602346009CDCE789
:1041B00001B0F0BD9880FC074C100040FF010000EA
:1041C0000481FC07F0B581B05924144D285D002806
:1041D00022D02E4610360027114B009409E030689B
:1041E0002346009C71680160285D08367F1C874269
:1041F00012D230689842F5D11C46C046C046092804
:10420000EDD905CE07490A40074909684904114319
:104210002346009C083EE6E701B0F0BD9880FC070D
:1042200038300040FFFF01FC0481FC070148006CAE
:104230007047C0469880FC0744200149085E7047DB
:104240009880FC0746200149085E70479880FC076B
:1042500048200149085E70479880FC074A200149C0
:10426000085E70479880FC074C200149085A704747
:104270009880FC074E200149085E70479880FC0733
:1042800050200149085E70479880FC075220014980
:10429000085A70479880FC0756200149085A704711
:1042A0009880FC0754200149085A70479880FC0701
:1042B000FEF7A0FE0E4C0FA12046FDF706FB13A152
:1042C0002046FDF702FB17A12046FDF7FEFA1B482A
:1042D000FDF7ACFFFEF770F8FEF77EF8FEF76CF81E
:1042E000174818490C220223FEF7D8FCFEE7C04607
:1042F000001100500A0D2A2A2A2A2A2A2A2A2A2AA2
:104300002A2A2A2A2A2A2A2A2A0000000A0D2A20D2
:10431000535049204D41535445522044454D4F2060
:104320002A0000000A0D2A2A2A2A2A2A2A2A2A2AA8
:104330002A2A2A2A2A2A2A2A2A0A0D004943FC075D
:104340009446FC07F480FC07F0B581B00446FEF704
:1043500043F8184D18490C22284600F0F4F80028BC
:1043600001D01DA100E015A1234E3046FDF7ADFAA6
:1043700022A13046FDF7A9FA002C11D000273046C3
:1043800026A1FDF7A2FAF8B2295C3046FDF777FACC
:10439000304623A1FDF799FA7F1CF8B2A042EED374
:1043A00020A13046FDF791FA02493046FDF78DFA1B
:1043B00001B0F0BDF480FC078846FC070A0D416C93
:1043C0006C206279746573207265636569766564D3
:1043D000204F4B0D0A0000000A0D496E76616C6992
:1043E0006420627974652873292072656365697633
:1043F00065640D0A0D0A0000001100500A0D427993
:104400007465732072656365697665643A0D0A2088
:1044100020496E206865783A00000000307800007E
:104420002C2000000A0D2020537472696E673A0038
:10443000B0B582B0002400940320050205210423B6
:1044400020462A46FBF7ACFF0120009008211D23DF
:1044500020462A46FBF7A4FF009406211C23204691
:104460002A46FBF79DFF009409211B2320462A467C
:10447000FBF796FF00940B211A2320462246FBF7F8
:104480008FFF02B0B0BDC046F0B581B01D480C38FA
:10449000012707801B242046FBF7D4FE1A481B493E
:1044A000FCF7C2FD1A48FDF7C7FE00250095032062
:1044B00006020521042328463246FBF771FF0097C8
:1044C00008211D2328463246FBF76AFF0095062186
:1044D0001C2328463246FBF763FF00950921284636
:1044E00032462346FBF75CFF00950B211A23284632
:1044F0002A46FBF755FF034908883843088001B076
:10450000F0BDC0460C03005000110050A046FC074F
:104510007046FC0703460B439B0703D009E008C91C
:10452000121F08C0042AFAD203E00B780370401C63
:10453000491C521EF9D27047421C0178401C0029C8
:10454000FBD1801A704730B504460020034600E0D6
:104550005B1C934203D2E05CCD5C401BF8D030BDC5
:1045600070B50446002903D000202022012310E06A
:10457000002801D00020C043C046C0460DE02546BB
:10458000D5408D4205D30D469540641B1D46954090
:1045900040191546521E002DF1DC214670BD000069
:1045A000064C0125064E05E0E36807CC2B430C3C86
:1045B00098471034B442F7D3FBF776FDB846FC07B2
:1045C000D846FC0702E008C8121F08C1002AFAD129
:1045D00070477047002001E001C1121F002AFBD183
:1045E000704700001C49088807229043088008890A
:1045F000C0071A4811D0091F098800290DD1184990
:104600004A88C2838A884283CA88C2820289154B3B
:1046100013400988C90119430181134906220A8000
:104620000121CA03114B1A60BFF34F8FBFF36F8F85
:1046300002221A60BFF34F8FBFF36F8F1960BFF371
:104640004F8FBFF36F8F01880422914301800A3896
:104650000021018062B67047080300500A00005034
:104660000080FC077FFE00000034005080E100E085
:104670000000D00708000800000000000000000053
:104680000000000000000000526573706F6E7365DB
:1046900020736C004469616C6F672064656D6F0006
:1046A0000B08008300000000020000000000000072
:1046B0000000000000000000D846FC070080FC0756
:1046C00008000000C445FC07E046FC070880FC0722
:1046D00000080000D445FC07000000008E070E0013
:0400000507FC00A153
:00000001FF
