:0200000407FCF7
:10000000E087FC07B500FC07BD00FC07D500FC0736
:1000100000000000000000000000000000000000E0
:10002000000000000000000000000000ED00FC07E0
:100030000000000000000000EF00FC07F100FC07DA
:10004000F300FC07F300FC079902FC078902FC0798
:10005000F300FC07F300FC07F300FC07F300FC07C8
:10006000F300FC07F300FC070902FC071302FC077E
:100070001D02FC072702FC073102FC07F300FC0706
:10008000F300FC07F300FC07F300FC077501FC0715
:10009000F300FC07F300FC07F300FC07F300FC0788
:1000A0000348854600F042F800480047E903FC0792
:1000B000E087FC070F4880470F480047042071463F
:1000C000084203D0EFF309800C490847EFF308809A
:1000D0000A49084704207146084203D0EFF309801B
:1000E00007490847EFF3088005490847FEE7FEE7A0
:1000F000FEE7FEE75D10FC07A100FC078702FC0796
:100100008502FC07421C0178401C0029FBD1801AA3
:10011000704730B504460020034600E05B1C934264
:1001200003D2E05CCD5C401BF8D030BD064C01250D
:10013000064E05E0E36807CC2B430C3C984710348F
:10014000B442F7D3FFF7B0FFF410FC071411FC071B
:1001500003460B439B0703D009E008C9121F08C0E0
:10016000042AFAD203E00B780370401C491C521E8B
:10017000F9D27047FEB5994C083420480688012012
:100180000190C004029000271D4D002E34D0042F92
:1001900032D2F0072BD0A889000605D428896989B6
:1001A000401A4142414100E000210198B840134A01
:1001B00050802889029A134B1A60BFF34F8FBFF308
:1001C0006F8F002907D0A989019A9143A981A98934
:1001D00008229143A9812268002A05D0411C606849
:1001E00089B200949047009C02987E4908601035BF
:1001F000083476087F1CC8E7FEBDC0468236005032
:100200000036005080E100E080B50A2000F016F8CA
:1002100080BD80B50B2000F011F880BD80B50C20AA
:1002200000F00CF880BD80B50D2000F007F880BD0F
:1002300080B50E2000F002F880BD000070B5C0B29D
:1002400003460A3B01210A469A4093B20A4C1C1904
:100250005C406608094B1C880025360402D06D1CE2
:10026000760CFAE79443AAB20D46954025431D80CB
:1002700081400348016070BDFFFF01000E14005073
:1002800080E200E0FEE7FEE780B5024800F01EFED7
:1002900080BDC0460011005080B5024800F016FE37
:1002A00080BDC04600100050F0B50A7953014024CB
:1002B0001C40130180251D401609360275192C19A2
:1002C000D20020251540621910241C4012190B7809
:1002D0005B0008241C40121906241C401219CB791B
:1002E000DB079B0C4C796508ED07ED0CEB18E40778
:1002F000240D1B19134383818A790F2A43D0354A71
:1003000082180423DA41931E022B1BD3012A3AD808
:10031000EFF31083012282F310888D792E4C26880A
:10032000F6B23609B54203D12688F0273743278035
:1003300026880F27BE432E432680002B1CD082F335
:10034000108820E0EFF31083012282F31088224C02
:1003500027880F2637408D79AF4202D1278837434F
:1003600027802688F027BE432D0135432580002BAA
:1003700006D082F3108806E0002282F3108802E0A3
:10038000002282F310888A680280120C4280CA68B8
:100390008280120CC2800A8A521E42814A88002A38
:1003A00000D10A8A521E02814008382202400B48BE
:1003B00080184A6982608969C160FF200006084987
:1003C0000A6882430120C307D2180A60C0040549A5
:1003D0000860F0BD00CAFFAF803600507480FC0793
:1003E00010E400E000E100E000B599B0A448082165
:1003F00008910180A34EB08810AC20802088C046B0
:10040000C04620880422D14308420F9202D0002027
:10041000B08003E0308A01218843308234460F20C7
:1004200002908002318C01433184974B1888089DDB
:1004300028431880D88D06229043D8850127B80319
:10044000318C0143318418889049014019805888C3
:1004500000921043A8435880052005900607718D2F
:100460008B4AFF32D88D10403A020992C122950082
:10047000C905884A04950E9719D5FC352843D885B7
:10048000D88D10400E9AD1034018D885208C089939
:1004900008432084208C0F9988432084D88D904372
:1004A000D885208C4021884320841D461CE0029979
:1004B0000903032252021043D885D88D0843D885FA
:1004C000208C089988432084208C04218843208430
:1004D0005888714901405980D88D0E990843D885B4
:1004E0001D46708D4007FCD5208C03210A910843DE
:1004F000208428882022104340210791C9430840C6
:100500002880A08C069210430840A084F08A8022A4
:100510000C9210430840F082308EFF2188433086D1
:10052000308F08990843142188433087EFF31084F3
:100530000E9B83F31088708D0999084209D05748A3
:10054000437000F09FFC0E9B55490870E88D1840E1
:10055000487030880C9908433080524A106807214F
:100560000D918843106050684007FCD54E481061DB
:100570004E485061002C02D083F3108802E0002026
:1005800080F3108810680D99084012A90870087847
:1005900002281FD0708D0999084212D0144600F02D
:1005A00071FC0A2802D80B2000F076FCE88DC00709
:1005B00022460E9B05D1E88D1843E885708D4007D3
:1005C000FCD51068022101430598814311605068F1
:1005D0004007FCD5364C2068C1B20C20AA29014640
:1005E00000D00F993288824388183080C046C046B8
:1005F0005827304D00200B90E8530E98C046C04657
:100600002D4A101F00682D49884200D02FE1039722
:10061000029805070420002102910E9F0F950446C1
:100620001118081FEC32904200D3FBE000681190D3
:10063000119B2B4009200507119AAB4240D1119B19
:100640001F0AFDB2D2B2921F112A00D9C6E0C046DD
:100650007A441279520097440871C1C1C1C1C1C125
:10066000C1C1C18195A9B3C1B7BC124A0398105C3E
:10067000C0001018AA00FFF76BFD039969E0C0469F
:10068000003300500003005052000050FFBF000034
:1006900000F0FFFFFF0F0000FFF900007480FC076F
:1006A0000880FC070000F4070F009909090404A45E
:1006B000D07FF8071880FC07D47EF807A5A5A5A56C
:1006C000900F10D01198CC4988420CD820460830A1
:1006D00031462831119A8A4224D1C84AA158C84BC0
:1006E00019800F9D9BE711980F9D28400D990907D0
:1006F000884203D10020C046C04610E0119828402F
:10070000F90788420BD0119828400599490788427B
:1007100005D0119828400A994907884270D1201DB8
:10072000B64A7CE7B11C119A8A42B64B5DD1B34DF3
:100730006159562299522A460F9D70E7592201921B
:10074000B04B985CC00018181030AA00FFF700FDED
:100750000199AC4A505CC01950543FE0A74AA158D7
:100760004843A258120C801A00B2C008A54B40336F
:10077000D88088B2101A8108A34A11400818401C7A
:1007800098802BE09D4AA1584843A258120C801A29
:1007900000B2C0089B4B4033588188B2101A8108C0
:1007A000994A11400818401C188117E0029FB800B0
:1007B00012AA1018AA00FFF7CBFCEF1902970DE060
:1007C0008E482058522107E08C4820588D490864F3
:1007D00004E08A48205854218A4A5052A800201820
:1007E000001D0E9F854A0F9D19E731462431119A4D
:1007F0008A420BD1814AA158814B59800F9D0EE747
:100800001198401C20467D4A0CD008E73146203123
:10081000119A8A42794A0F9D00D000E7A158784B7F
:100820009980FCE6774D0399685C4008685459202C
:10083000295C4908295428464030129981810921B0
:10084000139A5143130CC91A09B2C908018291B213
:10085000591A8A086C4B1A405118491CC181808A68
:100860000028F64C03D10498E430542168525620F5
:10087000285A0028EE4A0E9F05D12068C0B2AA2847
:100880000C9800D06E20B18CB943B1840B991291B1
:100890001299142902DA1299491CF8E7718939432F
:1008A00002230F939943718171894906FCD57080A9
:1008B0000B981290E120C0001299814202DA12983E
:1008C000401CF6E770890A99884370817089000698
:1008D000FCD5EFF3108487F3108830880C99084317
:1008E000308010680D998843106050684007FCD52F
:1008F000D0481061D048506130880C9988433080CE
:10090000708D099908420DD0C7480B994170C74DA9
:10091000287800F0C1FA6878002803D1C049C88D52
:10092000B843C885002C02D087F3108802E000206D
:1009300080F31088B9480780708D099908421BD050
:10094000B9484078012803D100F09CFA1B2813D83D
:10095000B448401CB24D2988014201D1AF48008CF7
:10096000B2494F701B20087000F096FAE88D3843AA
:10097000E885708D4007FCD5EFF3108087F3108871
:10098000B188079A1143B180002802D087F31088FC
:1009900002E0002080F31088A94801880188C90777
:1009A000FCD16421A04C0F9A6252A6498A890C9D01
:1009B0002A438A81A44A0B2303931380089A0A804E
:1009C0000B9B8B808A89AA4325468A810A9A8A8151
:1009D00087830384A365E36523668384EFF3108034
:1009E00087F310880499FC31B2880A43B28000284A
:1009F0000CD087F310880CE04C420050D47EF807EE
:100A00000080FC071880FC07FF3F0000002080F3F7
:100A10001088079A8D4C06982080A0881C210143DD
:100A200060208143A180A0880A998843A080A08883
:100A30000C9B9843A0802878FE21014029700B9DD3
:100A4000A58120891843208177480078F121014051
:100A5000881C7549087020890D99084378218843BE
:100A600020817148456020889043208012AE3582F5
:100A7000758004200D9030701895179515952046B7
:100A80001C30149005981390714F38463146FFF78B
:100A90000BFC0A98307120462030159010373846EC
:100AA0003146FFF701FC2088069988432080694879
:100AB0000180049A8281811E099B0B8011461931A5
:100AC00041820799018011461831C1810E9F790238
:100AD000018017328282F90201801A2101834F4975
:100AE0008889384388815CA0614EB04761A0B047D7
:100AF00066A0B0476B484C49486000F0E3F8A58415
:100B0000494E208806990843208000F0DBF83078B1
:100B1000C00700D080E04E4D00F0F4F821881F227D
:100B20009143218021880F9A1143218021880D9AB9
:100B300011432180022826D1A188208838432080B3
:100B40003A48801C4906C90E491CC908574A354E07
:100B50000B9F0B2F12D8238B9B04FCD45388238527
:100B600013882384731C258B1D42FBD15218A38B41
:100B7000258D2D04EB1808C07F1CEAE71820205EA5
:100B80000028FBD448E000F0BDF8411E8841400039
:100B90000099CA430F92A98911400818A8812348D7
:100BA000801CA880000CE8803246039E2E816E8156
:100BB000A88908990843A881A8893843A881208872
:100BC000102101432180384890600B9FD760A88B8B
:100BD00007990843A88300F095F8411E884140001A
:100BE000A98B0F9A11400818A88330482882000C5E
:100BF00068822E836E83A88B089A9043A883A88B63
:100C00000E990843A8832088104320800648076176
:100C10004761208808432080FEE7C046000300505B
:100C200052000050FF0F00007480FC070880FC0792
:100C30000000F4070F009909090404A4D07FF80705
:100C40007C11005000110050C011005000120050E3
:100C500000360050043000500A0D2A2A2A2A2A2A77
:100C60002A2A2A2A2A2A2A2A2A2A2A2A2A00000062
:100C7000B10CFC070A0D2A20535049204D41535412
:100C800045522044454D4F202A0000000A0D2A2AD3
:100C90002A2A2A2A2A2A2A2A2A2A2A2A2A2A2A2AB4
:100CA0002A0A0D00690DFC07DD0CFC07E810FC07A3
:100CB00010B50446FFF726FA81B2204600F0A8F9E5
:100CC00010BD000050480188202291430180D9497D
:100CD00009780907490F81847047C04680B5D54817
:100CE0000278D20704D1064A0023D35E002BFBD43E
:100CF0004068002802D0084600F036F880BDC046A3
:100D000018120050134800884006C00E1CD041083D
:100D100001438A080A4300091043010A0143080CF1
:100D20000843C04341080C4A0A40801A0B49820814
:100D300008400A4080180109401809490140094843
:100D40004843000E1D3800E00320C1174840401AF8
:100D5000C0B27047041200505555555533333333E4
:100D60000F0F0F0F01010101F0B585B0019026486A
:100D700000258584018820220A4302802348801CA4
:100D800023490C220090FFF7C4F9002801D028A0C5
:100D900000E020A0FFF78CFF2DA0FFF789FFECB249
:100DA0000198844228D2039534A0FFF781FF1748A9
:100DB000001987787809302437210528204600D388
:100DC000084602913909401804AD287001262846CA
:100DD000314600F01DF90F2038400A2800D3029C4C
:100DE000201828702846314600F012F924A0FFF799
:100DF0005FFF039D6D1CD2E71DA0FFF759FF009810
:100E0000FFF756FF05B0F0BD001200500880FC0748
:100E1000DC10FC070A0D416C6C206279746573204C
:100E20007265636569766564204F4B0D0A000000AA
:100E30000A0D496E76616C69642062797465287365
:100E4000292072656365697665640D0A0D0A0000E4
:100E50000A0D42797465732072656365697665640D
:100E60003A0D0A2020496E206865783A000000009B
:100E70000A0D2020537472696E673A0030780000C2
:100E80002C2000000E480188890918220A40008899
:100E90008004400F8018704710B51F21490282015D
:100EA0000A4007490B88074C1C4014430C800A88F1
:100EB000054B13404007800C1818088010BDC04631
:100EC00054000050FFF90000FFC70000F0B585B0E6
:100ED00004464E48201A411E8841400155490818D1
:100EE00001463631019101464031039101463C31C2
:100EF000009101462C31029105462E3506462836D2
:100F00003830049027467C3720890F210140481E45
:100F10000B28F9D878440079400087444E06051E16
:100F200005222A0505050532EEE702980088298882
:100F3000814234D22289C0231340C02B03D13A8886
:100F4000920703D4E0E7A28A9206DDD54A1C2A80E4
:100F50003368595C21801146EAE7204600F030F8FA
:100F6000D2E704980268002ACED0A08A9E210140D0
:100F700004E004980268002AC6D001212046904768
:100F8000C2E7204600F01CF8A08801218843A08019
:100F9000039801680029B7D0019800880BE0A18868
:100FA00002229143A180A18880229143A1800099CF
:100FB00009680029A8D08847A6E705B0F0BDC0465B
:100FC000F8B51249411A4A1E91414901194A55186A
:100FD000AB8EE98E2C46303400953635994209D2D5
:100FE000868AF60710D006884F1C2F802268565438
:100FF0003946F3E7828801239A4382800098026C85
:10100000002A01D088B29047F8BDC04600100050B9
:1010100010B5084A283291840023D384064A0B0471
:1010200007D00378948AA406FCD51380491E401C7F
:10103000F5E710BD7480FC070011005002E008C8FD
:10104000121F08C1002AFAD170477047002001E042
:1010500001C1121F002AFBD1704700001A4988887D
:10106000072290438880052000078A89D2070DD087
:10107000098800290AD115490A8802854A8882848C
:1010800089880184418A124A0A4042821149062213
:101090000A800121CA03104B1A60BFF34F8FBFF3C0
:1010A0006F8F02221A60BFF34F8FBFF36F8F1960EB
:1010B000BFF34F8FBFF36F8F41890422914341816A
:1010C0000021018062B67047040300500080FC07D5
:1010D0007FFE00000034005080E100E05265737034
:1010E0006F6E736520736C004469616C6F67206478
:1010F000656D6F001811FC070080FC0708000000F8
:101100003C10FC072011FC070880FC07D8070000F2
:101110004C10FC070000000000008E070E000000CD
:0400000507FC00A153
:00000001FF
