:0200000407FCF7
:10000000E887FC07B500FC07BD00FC07D500FC072E
:1000100000000000000000000000000000000000E0
:10002000000000000000000000000000ED00FC07E0
:100030000000000000000000EF00FC07F100FC07DA
:10004000F300FC07F300FC079902FC078902FC0798
:10005000F300FC07F300FC07F300FC07F300FC07C8
:10006000F300FC07F300FC070902FC071302FC077E
:100070001D02FC072702FC073102FC07F300FC0706
:10008000F300FC07F300FC07F300FC077501FC0715
:10009000F300FC07F300FC07F300FC07F300FC0788
:1000A0000348854600F042F800480047E903FC0792
:1000B000E887FC070F4880470F4800470420714637
:1000C000084203D0EFF309800C490847EFF308809A
:1000D0000A49084704207146084203D0EFF309801B
:1000E00007490847EFF3088005490847FEE7FEE7A0
:1000F000FEE7FEE74910FC07A100FC078702FC07AA
:100100008502FC07421C0178401C0029FBD1801AA3
:10011000704730B504460020034600E05B1C934264
:1001200003D2E05CCD5C401BF8D030BD064C01250D
:10013000064E05E0E36807CC2B430C3C984710348F
:10014000B442F7D3FFF7B0FFE010FC070011FC0743
:1001500003460B439B0703D009E008C9121F08C0E0
:10016000042AFAD203E00B780370401C491C521E8B
:10017000F9D27047FEB5994C10342048068801200A
:100180000190C004029000271D4D002E34D0042F92
:1001900032D2F0072BD0A889000605D428896989B6
:1001A000401A4142414100E000210198B840134A01
:1001B00050802889029A134B1A60BFF34F8FBFF308
:1001C0006F8F002907D0A989019A9143A981A98934
:1001D00008229143A9812268002A05D0411C606849
:1001E00089B200949047009C02987E4908601035BF
:1001F000083476087F1CC8E7FEBDC0468236005032
:100200000036005080E100E080B50A2000F016F8CA
:1002100080BD80B50B2000F011F880BD80B50C20AA
:1002200000F00CF880BD80B50D2000F007F880BD0F
:1002300080B50E2000F002F880BD000070B5C0B29D
:1002400003460A3B01210A469A4093B20A4C1C1904
:100250005C406608094B1C880025360402D06D1CE2
:10026000760CFAE79443AAB20D46954025431D80CB
:1002700081400348016070BDFFFF01000E14005073
:1002800080E200E0FEE7FEE780B5024800F012FEE3
:1002900080BDC0460011005080B5024800F00AFE43
:1002A00080BDC04600100050F0B50A7953014024CB
:1002B0001C40130180251D401609360275192C19A2
:1002C000D20020251540621910241C4012190B7809
:1002D0005B0008241C40121906241C401219CB791B
:1002E000DB079B0C4C796508ED07ED0CEB18E40778
:1002F000240D1B19134383818A790F2A43D0354A71
:1003000082180423DA41931E022B1BD3012A3AD808
:10031000EFF31083012282F310888D792E4C26880A
:10032000F6B23609B54203D12688F0273743278035
:1003300026880F27BE432E432680002B1CD082F335
:10034000108820E0EFF31083012282F31088224C02
:1003500027880F2637408D79AF4202D1278837434F
:1003600027802688F027BE432D0135432580002BAA
:1003700006D082F3108806E0002282F3108802E0A3
:10038000002282F310888A680280120C4280CA68B8
:100390008280120CC2800A8A521E42814A88002A38
:1003A00000D10A8A521E02814008382202400B48BE
:1003B00080184A69026189694161FF200006084985
:1003C0000A6882430120C307D2180A60C0040549A5
:1003D0000860F0BD00CAFFAF803600506880FC079F
:1003E00010E400E000E100E098B0A3480821079184
:1003F0000180A24DA8880FAC20802088C046C0464E
:10040000208804210E91C943084202D00020A88010
:1004100003E0288A0121884328820F27B802298C0B
:1004200001432984964C2088079E30432080E18D2B
:1004300006208143E185012399032A8C0A432A84FB
:100440002188904A0A40228061880143B14361803B
:10045000052006900607718D8B4AFF32E08D104013
:100460001A020992C1229200C9050592019719D575
:100470001146FC310843E085E08D84490140D803F2
:100480000818E085288C079F38432884288C0E990B
:1004900088432884E08D9843E085288C4021884358
:1004A000288419E03903032252021043E085E08DCD
:1004B0000843E085288C079FB8432884288C0421B2
:1004C000884328846088724901406180E08D184328
:1004D000E085708D4007FCD5288C03210A910843E4
:1004E0002884674C20882022104340210491C9436E
:1004F00008402080A88C039210430840A884F08A0A
:1005000080220B9210430840F082308EFF218843F6
:100510003086308F3843142188433087EFF31085BD
:1005200083F31088708D099908420AD059484372A4
:100530001F4600F09BFC3B4657490870E08D384051
:10054000487030880B9908433080544A106807215E
:100550000C918843106050684007FCD550481061EA
:1005600050485061002D02D083F3108802E0002033
:1005700080F3108810680C99084011A90870087859
:10058000022822D0708D0999084215D01D461446C4
:1005900000F06CFC0A2802D80B2000F071FC3848EF
:1005A000C08DC00722462B4606D13549C88D184359
:1005B000C885708D4007FCD510680221014306985C
:1005C0008143116050684007FCD50D93364C20687C
:1005D000C1B20C20AA29014600D00E99328882436C
:1005E00088183080C046C0465825304F00200890FB
:1005F00078530D98C046C0462D4A101F00682D49FB
:10060000884200D02FE1029501980507042008993F
:1006100001910D9F0E9504461118081FEC3290426F
:1006200000D3FBE000681090109B2B4009200507C9
:10063000109AAB4240D1109B1F0AFDB2D2B2921F5A
:10064000112A00D9C6E0C0467A4412795200974474
:100650000871C1C1C1C1C1C1C1C1C18195A9B3C125
:10066000B7BC124A0298105CC0001018AA00FFF72D
:100670006FFD029969E0C04600330050000300504E
:1006800052000050FFBF000000F0FFFFFF0F00000E
:10069000FFF900006880FC070880FC070000F407F1
:1006A0000F009909090404A4D07FF8070C80FC0707
:1006B000D47EF807A5A5A5A5900F10D01098CC4919
:1006C00088420CD82046083031462831109A8A4298
:1006D00024D1C84AA158C84B19800E9D9BE7109899
:1006E0000E9D28400C990907884203D10020C0467E
:1006F000C04610E010982840F90788420BD01098A7
:10070000284006994907884205D0109828400A9940
:100710004907884270D1201DB64A7CE7B11C109A67
:100720008A42B64B5DD1B34D6159562299522A4641
:100730000E9D70E759220092B04B985CC0001818CB
:100740001030AA00FFF704FD0099AC4A505CC019B4
:1007500050543FE0A74AA1584843A258120C801AAF
:1007600000B2C008F54B4033D88088B2101A810817
:10077000F44A11400818401C98802BE0F04AA15818
:100780004843A258120C801A00B2C008EB4B403309
:10079000588188B2101A8108EA4A11400818401C92
:1007A000188117E0019FB80011AA1018AA00FFF7DE
:1007B000CFFCEF1901970DE0E1482058522107E0E6
:1007C000DF482058DD49086404E0DD482058542102
:1007D000DA4A5052A8002018001D0D9FD84A0E9DDD
:1007E00019E731462431109A8A420BD1D44AA158D4
:1007F000F24B59800E9D0EE71098401C2046D04ABF
:100800000CD008E731462031109A8A42CC4A0E9D1E
:1008100000D000E7A158E94B9980FCE6C74F029948
:10082000785C400878545920395C49083954384676
:100830004030119981810921129A5143130CC91A30
:1008400009B2C908018291B2591A8A08BD4B1A40EF
:100850005118491CC181808A0028B74C03D10598E2
:10086000E430542178525620385A0028089BAF4A69
:100870000D9F05D12068C0B2AA280B9800D06E2029
:10088000B18CB943B18411931199142903DA1199E8
:10089000491C1191F8E77189394302240E94A14350
:1008A000718171894906FCD5708011939A4DE120C0
:1008B000C0001199814203DA1198401C1190F6E7AB
:1008C00070890A998843708170890006FCD5EFF31E
:1008D000108487F3108830880B99084330801068A3
:1008E0000C998843106050684007FCD5904810610F
:1008F0009048506130880B9988433080708D0999F9
:1009000008420ED087484372874D287800F0B8FA25
:10091000089B6878804D002803D18049C88DB84372
:10092000C885002C02D087F3108801E083F310887B
:100930007A4C2F80708D099908421BD07948407AF3
:10094000012804D100F092FA089B1B2812D87448A1
:10095000401C2188014200D1288C73494F701B2014
:10096000087000F08DFAE08D3843E085089B708DAB
:100970004007FCD5EFF3108087F31088B188049A04
:100980001143B180002802D087F3108801E083F37F
:1009900010886D4801880188C907FCD16C21614C21
:1009A0000E9A625269498A890B9D2A438A81684A54
:1009B0000B231380079A0A80089B8B808A89AA439D
:1009C0008A810A9A8A81878303842366636625461F
:1009D000A3668384EFF3108087F310880599FC31B8
:1009E000B2880A43B28000280AD087F3108809E051
:1009F0004C420050D47EF8070080FC070C80FC07B6
:100A000083F310883C46534F03983880B8881C21E4
:100A10000791084360218843B880B8880A998843C1
:100A2000B880B8880B990843B8802C70BB8138898E
:100A300008433881EB602C7111AD2B826B80042050
:100A40000C90287017931693149338461C3013900B
:100A500006981290404E30462946FFF725FC0A982A
:100A600028713048047238462030149010363046D1
:100A70002946FFF719FC388803998843388037489E
:100A80000180059A8281811E099B0B801D21418274
:100A9000049901800799C181E10201801732028324
:100AA000610201801A2181821B4988892043888143
:100AB0002BA0314DA84731A0A84736A0A8473B48F6
:100AC0001849C86000F01CF939881F229143398009
:100AD00039880E9A1143398039880C9A114339802C
:100AE0003988214339803249002805D0022806D0B0
:100AF00001280FD18C1C05E04C1C522003E02D482E
:100B000038860C1D2C48B88500F064F80B2120466F
:100B100000F0AAF8FEE7C046000300505200005063
:100B2000FF0F00006880FC070880FC070000F40746
:100B30000F009909090404A4D07FF8070C80FC0772
:100B4000D47EF807FF3F00007C11005000110050D8
:100B5000C011005000120050003600500430005008
:100B60000A0D2A2A2A2A2A2A2A2A2A2A2A2A2A2A22
:100B70002A2A2A2A2A000000C10BFC070A0D2A2073
:100B800053504920534C4156452044454D4F202A4F
:100B9000000000000A0D2A2A2A2A2A2A2A2A2A2A9A
:100BA0002A2A2A2A2A2A2A2A2A0A0D00650DFC073F
:100BB000D410FC0773700000526500000080FC0731
:100BC00010B50446FFF79EFA81B2204600F016FAEF
:100BD00010BD0000F8B5224D2C46083400F090F806
:100BE000F1490B790C21002B274600D10F460091CB
:100BF0003A880626B243411E8841400010183880CA
:100C0000002B2F4600D104277A483880002B00D0D3
:100C1000AE1CE54A000C30800820002B01D10746AD
:100C200000E02F1D0B263E80002B01D10A2300E09F
:100C3000AB1D1E801179002900D1009C2188014341
:100C40002180208801210143218000200549116174
:100C500050612048018810220A430280F8BDC04636
:100C600004360050D90CFC07F8B50C46054600F0D8
:100C700047F8411E88414300E948067A1449002E8E
:100C80000A4600D1324696890627BE43F31893815F
:100C900015802B0C5380631E13815381037A002B24
:100CA00001D10C2100E00C310C8808239C430C80FE
:100CB0000C88012525430D805108C9B24018002138
:100CC000016141610348018819430180F8BDC046B4
:100CD000103600500012005080B5D1480278002A2A
:100CE00004D1064A0023D35E002BFBD4C068002841
:100CF00002D0084600F036F880BDC04618120050F9
:100D0000134800884006C00E1CD0410801438A08E1
:100D10000A4300091043010A0143080C0843C04379
:100D200041080C4A0A40801A0B49820808400A40D0
:100D30008018010940180949014009484843000E3C
:100D40001D3800E00320C1174840401AC0B2704768
:100D50000412005055555555333333330F0F0F0FD1
:100D600001010101F0B585B00190224822490C2211
:100D7000FFF7CFF9002801D027A000E01FA0FFF760
:100D80001FFF2DA0FFF71CFF0021CCB20198844269
:100D900027D2039133A0FFF713FF1648075D7809A8
:100DA000302437210528204600D30846029139090E
:100DB000401804AD287001262846314600F01EF97F
:100DC0000F2038400A2800D3029C2018287028469B
:100DD000314600F013F924A0FFF7F2FE0399491CF5
:100DE000D3E71DA0FFF7ECFE0248FFF7E9FE05B0D0
:100DF000F0BDC046D880FC07C810FC070A0D416C46
:100E00006C206279746573207265636569766564C8
:100E1000204F4B0D0A0000000A0D496E76616C6987
:100E20006420627974652873292072656365697628
:100E300065640D0A0D0A00000A0D4279746573207D
:100E400072656365697665643A0D0A2020496E20F3
:100E50006865783A000000000A0D2020537472691A
:100E60006E673A00307800002C2000000E480188A0
:100E7000890918220A4000888004400F80187047B2
:100E800010B51F21490282010A4007490B88074C0F
:100E90001C4014430C800A88054B13404007800C0B
:100EA0001818088010BDC04654000050FFF900001B
:100EB000FFC70000F0B585B004464F48201A411E18
:100EC000884140015649081801463E3101910146CA
:100ED0004831039101464431009101463431029179
:100EE00005463635064630364030049027467C3776
:100EF00020890F210140481E0B28F9D87844007939
:100F0000400087444E06051E05222A0505050532C8
:100F1000EEE7029800882988814234D22289C023D2
:100F20001340C02B03D13A88920703D4E0E7A28A8A
:100F30009206DDD54A1C2A803368595C218011460F
:100F4000EAE7204600F032F8D2E704980268002A67
:100F5000CED0A08A9E21014004E004980268002AB5
:100F6000C6D0012120469047C2E7204600F01EF877
:100F7000A08801218843A080039801680029B7D088
:100F8000019800880BE0A18802229143A180A188EA
:100F900080229143A180009909680029A8D0884740
:100FA000A6E705B0F0BDC0466880FC07F8B5124959
:100FB000411A4A1E91414901194A5518AB8FE98FD0
:100FC0002C46383400953E35994209D2868AF60778
:100FD00010D006884F1C2F80226856543946F3E7FC
:100FE000828801239A4382800098826C002A01D073
:100FF00088B29047F8BDC0460010005010B5084AAE
:10100000303291840023D384064A0B0407D003783E
:10101000948AA406FCD51380491E401CF5E710BD38
:101020006880FC070011005002E008C8121F08C1C8
:10103000002AFAD170477047002001E001C1121F59
:10104000002AFBD1704700001A4988880722904384
:101050008880052000078A89D2070DD009880029D9
:101060000AD115490A8802854A88828489880184C0
:10107000418A124A0A404282114906220A8001210D
:10108000CA03104B1A60BFF34F8FBFF36F8F02225A
:101090001A60BFF34F8FBFF36F8F1960BFF34F8F8D
:1010A000BFF36F8F41890422914341810021018068
:1010B00062B67047040300500080FC077FFE00000A
:1010C0000034005080E100E04469616C6F67206487
:1010D000656D6F00526573706F6E736520736C0081
:1010E0000011FC070080FC07080000002810FC0726
:1010F0000811FC070880FC07E00700003810FC0717
:0811000000008E070E00000044
:0400000507FC00A153
:00000001FF
